:020000040800F2
:10000000E80B0020790100085B1000085710000879
:1000100000000000000000000000000000000000E0
:100020000000000000000000000000005111000866
:100030000000000000000000CD100008531100086F
:10004000A901000800000000A9010008A90100089A
:10005000A9010008A9010008A9010008A9010008D8
:1000600000000000A9010008A9010008A90100087A
:10007000A9010008A9010008A9010008000000006A
:10008000D91100080000000000000000A9010008CC
:10009000A9010008A9010008A9010008A901000898
:1000A000A9010008A9010008A9010008A901000888
:1000B000A901000800F002F800F032F80CA030C8E6
:1000C000083824182D18A246671EAB4654465D46D4
:1000D000AC4201D100F024F87E460F3E0FCCB6466C
:1000E0000126334200D0FB1AA246AB4633431847E1
:1000F000A43D0000C43D000000230024002500268C
:10010000103A01D378C1FBD8520700D330C100D5D3
:100110000B6070471FB500F0A5F91FBD10B510BDED
:1001200000F042FE1146FFF7F5FF03F041FB00F03F
:100130005AFE03B4FFF7F2FF03BC00F089FE000093
:1001400070B505460C46164602E00FCC0FC5103EB2
:10015000102EFAD2082E02D303CC03C5083E042E7B
:1001600007D301CC01C5361F03E021782970641C38
:100170006D1C761EF9D270BD0F4880F308880F48B9
:100180000168090E0E4A914205D10E480E490160E0
:100190000E480F4901600F4880470F480047FEE7AF
:1001A000FEE7FEE7FEE7FEE7FEE700000B480C492E
:1001B0000C4A0D4B70470000E80B002004000000C3
:1001C0001F00000018100240010000000000014064
:1001D000000000005D110008B5000008E8050020DF
:1001E000E80B0020E8070020E807002030B5441C99
:1001F00003E00178401C00290DD08107F9D10B4B99
:10020000DD0104C8D11A91432940FAD0001B0A0627
:1002100003D0C01E30BD001B30BD0A0401D0801EBB
:1002200030BD0902FCD0401E30BD000001010101BB
:10023000F8B5042A2CD3830712D00B78491C03701D
:10024000401C521E83070BD00B78491C0370401CC6
:10025000521E830704D00B78491C0370401C521EA9
:100260008B079B0F05D0C91ADF002023DE1B08C9AE
:100270000AE0FFF765FFF8BD1D4608C9FD401C46B2
:10028000B4402C4310C0121F042AF5D2F308C91A37
:10029000521EF0D40B78491C0370401C521EEAD445
:1002A0000B78491C0370401C012AE4D409780170C2
:1002B000F8BDD2B210B513029A1813049A1800F0C0
:1002C0000EF810BD01E004C0091F0429FBD28B0702
:1002D00001D50280801CC90700D002707047002938
:1002E0000BD0C30702D00270401C491E022904D360
:1002F000830702D50280801C891EE3E70022EEE717
:100300000022DFE7002203098B422CD3030A8B4231
:1003100011D300239C464EE003460B433CD40022FD
:1003200043088B4231D303098B421CD3030A8B420F
:1003300001D394463FE0C3098B4201D3CB01C01ADD
:10034000524183098B4201D38B01C01A52414309A8
:100350008B4201D34B01C01A524103098B4201D396
:100360000B01C01A5241C3088B4201D3CB00C01A03
:10037000524183088B4201D38B00C01A524143087B
:100380008B4201D34B00C01A5241411A00D20146A0
:100390005241104670475DE0CA0F00D04942031039
:1003A00000D34042534000229C4603098B422DD388
:1003B000030A8B4212D3FC22890112BA030A8B4230
:1003C0000CD3890192118B4208D3890192118B427F
:1003D00004D389013AD0921100E08909C3098B4204
:1003E00001D3CB01C01A524183098B4201D38B0147
:1003F000C01A524143098B4201D34B01C01A5241EA
:1004000003098B4201D30B01C01A5241C3088B422E
:1004100001D3CB00C01A524183088B4201D38B0019
:10042000C01A5241D9D243088B4201D34B00C01AA3
:100430005241411A00D20146634652415B101046B8
:1004400001D34042002B00D54942704763465B1000
:1004500000D3404201B50020C046C04602BD7047EF
:100460007047704770B5064C7C44064D7D4403E0F0
:10047000206800198047241DAC42F9D170BD0000EE
:10048000483A0000483A00000246C80FC0078143BE
:100490004B0030B54B405B009B0D20D01923DB0691
:1004A000C91801231B05994220DB0324A407042556
:1004B0001346AB400BD3002B04D1EB0613409B003B
:1004C000E34204D401246407002312195941FF2395
:1004D0001B0599420BD2C9000143500F09E0CB0222
:1004E00004D501430803024305D0054830BDFF2170
:1004F000C905084330BD084607210905884330BDBA
:100500000000C07FF0B50C46871A9C410D46861A44
:100510009D4103D2C01BA141D21963410D0D1F0D96
:10052000C94EEC1BAE435CD07F057F0D0026002F2B
:1005300051D02D05AC46A943DD020123ED0A1B0570
:100540001D4320231B1B24D41746E7403818714154
:100550002F46E740CC199D402818314661410C0DCB
:1005600027D161449A4013D50023401C59415200C1
:100570000ED14008400001224B005205D34207D360
:1005800005204007C14201D5B04900E0B0493046DE
:10059000F0BD6B00002A00D001229A181F23203CD6
:1005A0001B1B01D5002302E0E540281871410C0D0A
:1005B000D7D0012424050919C407CD0740084908EC
:1005C000E40F28436144002CD5D00024401C614135
:1005D0009A40D0D1CDE76A05520DD9D1C90FC907CC
:1005E000D5E79C4D4E00002801D0012400E00024F6
:1005F00034195F00002A01D0012600E00026BE1950
:10060000954FAC420CD8AE420AD8B44206D0012570
:100610006D05EC42BCD010461946F0BD9942FCD0A5
:1006200000203946F0BDF0B51FB40C460F46811AC4
:100630009F412546861A9D4106D20125ED076F4050
:10064000401ABC4152187B41210D1E0D8D1BAC463A
:100650007D4D8D437ED075056D0D7CD00D05AE466C
:10066000AC431B031B0B794D52429D412023664630
:100670009B1B14D31746F74038180026009074418E
:1006800060462F460741E41900989D4028186641AE
:1006900016D4714671189A4025D5012320E093188D
:1006A0002A466A415200002B00D0521C1E23203ED5
:1006B0009B1B002B61DD3541EE1728186641E8D5FC
:1006C000001876415B1C9A4000D3401C4B05F31880
:1006D0001524E34010D3002B52D071467118D30F6C
:1006E000C01802D3491C05B0F0BD0123DB079A42B4
:1006F000F9D140084000F6E701225205B21801D1B5
:10070000002853D00123CC0ADB029943891E002A1A
:1007100008D1020C03D0020C0004103902E002469A
:10072000002020390023550B05D112020823550B58
:1007300001D152010D23550C01D112011B1DD50C05
:1007400001D192009B1C150D01D152005B1C20258C
:10075000EE1A01E02CE022E00546F54015439840F2
:10076000CA1AE10769181305C918002ABBDA032061
:1007700040070818C10FC9070FE071466118B2E7BA
:10078000F10740080843711071444A000CD001235E
:100790005B059A42A7D2C90FC9070020A3E7490504
:1007A000490D26D1002001E00028F4D100219AE76C
:1007B000284D6600002801D0012100E000217118B9
:1007C0005F00002A01D0012600E00026BE19224F5A
:1007D000A94210D8AE420ED8B14208D001256D050D
:1007E000E94206D01946A802414010467BE79C42E8
:1007F00001D0214677E70020394674E710B50C4652
:100800005C4005D50124E4076340FFF70CFF10BDF1
:10081000FFF778FE10BD30B40C465C4004D50124CF
:10082000E407634030BC6DE630BCFCE670B50124E3
:10083000E40761400D465D4002D4FFF763FE70BDE2
:100840006340FFF7F0FE70BDFF0700000000F0FFFF
:100850000000F07F0000E0FF0000F87FF0B58B4C57
:100860000F09254689B0BD437BD01D092646AE43FE
:10087000FAD00E465E402740F60F3E43254071D029
:1008800024012142FBD0FF24AD19A4042D1B0395A4
:1008900001252D05DB02DB0AC9022B43C90A2943C6
:1008A0001E010901040F130F050121431701880BD5
:1008B000820391432D098C46A90B1E438A0395435D
:1008C000B30B9A0396433F09BA0B9403A7430296CE
:1008D0002E467E430497B6464E19D7190C4601960C
:1008E000544305977E43371B7646BF1B3601B646F9
:1008F000BE0B361900967646BC043719009C01D30E
:10090000641C00946400002F01D001263443029E31
:10091000049F754366467E430496760034196E0044
:1009200034190094029C019E1C196643751BAE4647
:10093000069465464519059C05956C4359437546D3
:100940000891691A0191049E01465143A41B049128
:10095000611A009C0791E10605D06109012211434B
:1009600002E072E06EE06109089D00272C0A2D0666
:100970006918049D7C412A0A2D066918019D62416F
:10098000AC0DAD026D185441079A910D92025519A4
:100990006141029A644658435443069B059A5A4360
:1009A000121A131B9A0E9B015B187A41010B00056A
:1009B000C3185141220A200644195A419A4200D2D2
:1009C000491C01204002814203D315230226F6432D
:1009D00002E014230326F6432020C51AA940174637
:1009E000AF40DA400A4320460399D84009147318EF
:1009F00019055118039A3843D2075140AC4009D029
:100A00000122944006D30022401C5141002C01D108
:100A1000400840001E4A934212D3012203989206D6
:100A2000904207DB0520400709181A480143C0120D
:100A3000414004E0032040070818C10FC907002007
:100A400009B0F0BD0020F107FAE705180C464C414B
:100A500011486D42A04115D394181A465A410E48C8
:100A6000644290410ED301204A004005824209D3DE
:100A70005A00824206D35940C90F084AC9070020CC
:100A80001143DDE700200649DAE700000000FF0718
:100A9000FE070000FFFFFF7F0000E0FF0000F07F87
:100AA0000000F87F0121C9050123411842001B06FF
:100AB000D3185B0E0AD0C1100722D206891840074E
:100AC0005242D14201D5520089187047090208D517
:100AD0000146002A03D0C10FC90700207047104605
:100AE0007047420202D000200249704707210905E1
:100AF0000143F4E70000F87FF0B5FF252D04C60997
:100B0000C209FF2704462E400137CB093E43484027
:100B10002A402B400746002A6BD0002B69D0AA42FE
:100B200067D0AB4265D0002800DA32460125ED05DA
:100B300029432C4309022002090AD21A4B0C7F24B4
:100B4000E31A434C000A7C44E35C7D24240412191C
:100B500014145B00A218884201D3521C00E040002C
:100B600049420C465C4324115C43DB016415E318E5
:100B7000040A5C43C502200D0C4644436419250A4F
:100B80005D432303EC0C0D46654300030019EB188D
:100B90004C42A34201D35B18401CD4052018002B03
:100BA00007D05B00C91804D3401C002901D14008BC
:100BB00040003F2189048A4209D3002A08DC11063B
:100BC000090F04D0032149074018C00FC007F0BD2A
:100BD00001224100120689187F2252069142F6D264
:100BE00005214907C84201D59010F0BDFF20C0057E
:100BF000F0BD002F00DA32461648AA4207D2AB42B7
:100C000005D21902090E17D0F80FC007F0BDFF2555
:100C100063002D06AB42F9D84900A942F6D8AB4291
:100C200001D1A942F2D0A94201D1002101E0610025
:100C30004908D0050843F0BD1102090EFBD0FF2082
:100C40000243D005F0BD0A460146104654E70000B5
:100C5000493200000000C07F10B501469E2400020A
:100C6000CA15A307002A02D01843002A04DBA21ADF
:100C7000002A0CDDD04010BD1206120E01D140003A
:100C80004008A21A03D4D04040420028F3DDFF22DE
:100C900048001206904201D9002010BDC817C04379
:100CA000584010BD1F22030C02D10F2200041CD09B
:100CB000030E01D10002083A030F01D10001121FF7
:100CC000830F01D18000921E002801DB4000521EDC
:100CD000D2055118021251181922904004D3491C10
:100CE000002801D14908490008467047C10FC907CB
:100CF00000D04042012292071143D3E70121890726
:100D0000D0E7000010B5FF231B0644009C421DD80D
:100D10004C009C421AD80346124A0B4307D4401A8F
:100D200002D3EFF3008010BDEFF3008010BD081A6E
:100D300006D2EFF3008001219043C907084302E087
:100D4000EFF30080904380F3008810BD0D231B0457
:100D50001A4204D01146002000F006F810BD00F041
:100D60001BF810BD00000090CA0211D54A03520FB3
:100D7000002A04D0C803C043012188407047054AB7
:100D8000EFF3008108010009104380F300887047E9
:100D9000002070470000003010B5024800F029F82C
:100DA00010BD00000000C07F754600F057F8AE4649
:100DB000050069465346C008C000854618B020B5F6
:100DC000FFF7F4F960BC00274908B6460026C0C505
:100DD000C0C5C0C5C0C5C0C5C0C5C0C5C0C5403DF3
:100DE00049008D4670470446C046C0462046FFF77E
:100DF000A0F910B50C461107090F092904D00A29DA
:100E00000AD008290CD104E011460820FFF7ACFFF6
:100E100006E0510606D501E0510601D50120C007C4
:100E2000214610BDD10607D501010909CC084907A3
:100E3000000E0006044309E0410F20024907000AA2
:100E40000143200E00061D22D14101430846E7E779
:100E500001491820ABBEFEE726000200004870479B
:100E600004030020704770B58C180578401C6B0790
:100E70005B0F01D10378401C2A1106D10278401C77
:100E800003E00678401C0E70491C5B1EF9D12B074D
:100E900005D40023521E0DD40B70491CFAE70378C9
:100EA000401CCB1A921C03E01D780D70491C5B1C82
:100EB000521EF9D5A142D8D3002070BD10B50B4603
:100EC0000021846A1C43846200BF0C4614432146FF
:100ED000416110BD002904D0826801231A43826059
:100EE00003E0826802231A438260704710B504460B
:100EF0000548844207D10121401500F019F900216D
:100F0000601500F015F910BD0024014030B5014610
:100F10000020002200238C680125ED072C438C6003
:100F200000BF8C68E30FDB07521C0F242403A2428E
:100F300001D0002BF5D18C68E40FE407002C01D11F
:100F4000086C00E0002030BD0146086C80B270479C
:100F500030B5024600200023012424060C40002C5A
:100F600005D0946801252D06AC43234600E01368A4
:100F70001C460C40002C01D0012000E0002030BDB8
:100F800010B50022C268084B1A400C7964030B6844
:100F900023438C682343CC6823430C6923434C6967
:100FA00023431A43C26010BD03D2FFFF81680422AD
:100FB0001143816070470021016001718160C1604F
:100FC000016141617047F0B50A4600210023002409
:100FD00000BF3DE001258D402B4615681D402C4685
:100FE0009C4234D11579012D02D01579022D16D1EC
:100FF00085684F000326BE40B543856055794E0095
:10100000B540866835438560858801268E40B543A6
:101010008580858896798E40B6B23543858005688F
:101020004F000326BE40B543056015794E00B5401C
:10103000066835430560C5684F000326BE40B543CA
:10104000C560D5794E00B540C6683543C560491CBA
:101050001029BFD3F0BD00BFFEE7704700218278A2
:10106000002A27D0184A03231B02D21803789B10AA
:101070009B00D15802789207D30EFF229A400B466C
:101080009343194642789207120E03789B07DB0EB2
:101090009A4011430C4A03231B02D21803789B1079
:1010A0009B00D1500278D306DB0E01229A40064BFA
:1010B0001A6007E00278D306DB0E01229A40024B49
:1010C00080331A607047000000E100E070470000C4
:1010D000002905D0054A52690243044B5A6104E0D5
:1010E000024A52698243014B5A6170470010024024
:1010F000002905D0054AD2690243044BDA6104E0B5
:10110000024AD2698243014BDA6170470010024003
:10111000002905D0054A92690243044B9A6104E014
:10112000024A92698243014B9A6170470010024063
:10113000002905D0054AD2680243044BDA6004E076
:10114000024AD2688243014BDA60704700100240C5
:10115000704710B501F040F810BD000010B51B48F5
:101160000068012108431949086008464068184989
:101170000840164948600846006816490840134967
:101180000860084600680121890488430F49086007
:10119000084640683F21090488430C4948600846D6
:1011A000C06A00090001C8620846006BFF21543183
:1011B0008843064908630846406B4008400048637E
:1011C0000020886001F0A8FB10BD00000010024064
:1011D0000CB8FF08FFFFF6FE10B51021034800F021
:1011E00009F80348006800F004F910BD000400404D
:1011F00008000020CA43028270470000002904D082
:10120000028801231A43028003E00288014B1A403E
:1012100002807047FEFF0000002A03D083890B4341
:10122000838102E083898B438381704770B50022FC
:1012300000230024058C134E35400584038C8488DC
:10124000828B114D2A40114D2A400D782D062D0C10
:101250002A430F4D2B400D7B2D072D0C2B438D78F2
:101260002D072D0C2B430B4DA84205D10A4D2C40C8
:101270000D8AAD052D0C2C43848082838D68056416
:10128000038470BDFFEF0000FF8F0000FFFC000033
:10129000FFDF0000002C0140FFBF00000A460021D4
:1012A000818B034B194013061B0C19438183704734
:1012B000FFF700000185828270470000002202884B
:1012C000154B984206D001239B07984202D0134B3E
:1012D000984203D1124B1A404B881A43114B984243
:1012E00003D0114B1A400B891A4302804B68C3622A
:1012F0000B880385084B984208D00C4B984205D0C8
:101300000B4B984202D00B4B984201D18B7A03864B
:101310000123838270470000002C0140000400403C
:101320008FFF000000100040FFFC00000040014063
:101330000044014000480140F8B505460E461446F9
:101340005221686D02F0EAFA00280CD0204601789C
:10135000491C49B2017000214156082901DD0021D4
:10136000017000BF0EE04321686D02F0D7FA00283B
:1013700008D000BF2078C7B23946304600F08CF85C
:101380003046F8BD3046FCE701468888401C00B274
:1013900088800420085E7D22D200904227DB887876
:1013A000401C40B2887000208880022008563C28EB
:1013B0001BDB002088704878401C40B24870012038
:1013C00008563C280FDB002048700878401C40B2CB
:1013D000087000200856182803DB00200870012040
:1013E00070470020FCE70020FAE70020F8E700BF84
:1013F000F6E770B50446002C00D170BD25462C469A
:101400002046783001F08CFC20463E30FFF7BCFFD0
:1014100000BF00BFF1E701460420085E002805DD9B
:101420008888401E00B2888000207047022008563D
:10143000002808DD8878401E40B288707D20C000FA
:1014400088800020F1E701200856002807DD487851
:10145000401E40B248703C2088700020E5E7002024
:101460000856002807DD0878401E40B208703C206E
:1014700048700020D9E70120D7E7012A01D1816116
:1014800000E0018570470246108A0840002801D01C
:10149000012070470020FCE700B502460B0002F077
:1014A0004BF90805101B1C2732333E4910780A30CF
:1014B00040B2107000201056182801DB0020107078
:1014C00038E01078401C40B21070002010561828E8
:1014D00001DB002010702DE02CE050780A3040B283
:1014E0005070012010563C2801DB0020507021E094
:1014F0005078401C40B25070012010563C2801DB4F
:101500000020507016E015E090780A3040B29070DC
:10151000022010563C2801DB002090700AE09078F1
:10152000401C40B29070022010563C2801DB002085
:10153000907000BF00BF00BDF0B58DB005460C46F1
:101540001646002C02D100200DB0F0BD0020305610
:101550000C90012030560B90022030560A90042047
:10156000305E09902046FEF741FE07460A210C989E
:10157000FEF7D2FE0A210190FEF7CEFE02910A216B
:101580000298FEF7C9FE303108A801700A210C98B4
:10159000FEF7C2FE303108A841700A210B98FEF711
:1015A000BBFE0A210290FEF7B7FE30316846017794
:1015B0000A210B98FEF7B0FE3031684641770A21C8
:1015C0000A98FEF7A9FE0A210290FEF7A5FE303127
:1015D000684601760A210A98FEF79EFE3031684679
:1015E0004176002005900490039000BF25E0215C27
:1015F000682907D105994A1CD2B2059208AA515C04
:10160000295419E0215C6D2907D104994A1CD2B2F2
:10161000049207AA515C29540EE0215C732907D17A
:1016200003994A1CD2B2039206AA515C295403E0E2
:10163000215C3A2900D12954401CB842D7DD284604
:1016400082E7000070B505461D4800210160416039
:1016500081607D21C9002846FEF75EFE06460A220B
:101660003146174800F066FF1548FEF7BFFD0446F7
:101670002E2013490855002D01DA694200E0294661
:1016800008467D21C900FEF747FE0E460C490919A0
:10169000481C0A22314600F072FF0948FEF7A6FDF9
:1016A000044620222046641C05490A542A2220466A
:1016B000641C0A542146641C0148425470BD000059
:1016C000200200200185704770B504460E4625466D
:1016D00005A12846583002F0A9F905A1284668302E
:1016E00002F0A4F9002070BD41646A7573740000B3
:1016F00053657474696E67730000000000B587B0AD
:101700001548FFF7F3FB01A8FFF755FC00200190F7
:10171000012069460872002003900590069001A9F7
:101720000D48FFF72DFC072201210B48FFF7C6FBF0
:101730000948FFF7EBFB01210748FFF7CBFB00BF90
:1017400001210548FFF704FC0028F9D00248FFF703
:101750002DFC07B000BD000000240140F0B585B0AD
:1017600007463C462AA12046583002F05FF9522134
:10177000606D02F0D3F8002816D020467830816AD8
:1017800008460191FFF78EF9234A244B03910290FA
:10179000FFF734F80546FEF777FE01460490204631
:1017A000783001F002FA1BE04321606D02F0B6F8D8
:1017B000002815D020467830816A08460191FFF74D
:1017C00071F90546144A154BFFF725F8039102906D
:1017D000FEF75AFE014604902046783001F0E5F904
:1017E00020467830816A0E460D49304602F09EF957
:1017F0000546FFF731FA0390FFF724FF01460490F6
:101800002046683002F012F9002005B0F0BD00005B
:1018100041646A204B203A007B14AE47E17A843F52
:101820000000C84270B505460E462C465221606D38
:1018300002F074F8002805D01748007801214840CC
:101840001549087015A12046583002F0EFF81248EB
:10185000007800280DD013A12046683002F0E6F889
:101860004321606D02F05AF8002812D0A06CE064A9
:101870000FE00DA12046683002F0D8F84321606DDA
:1018800002F04CF8002804D0206D00BF416900BF71
:10189000E164002070BD00003A00002045786974C2
:1018A000203F2000596573004E6F00001CB50020DA
:1018B000009001230322990201900920C00600F044
:1018C00083FE002000900123032259020190092089
:1018D000C00600F079FE00200090012303220221BF
:1018E00001902C4800F070FE00200090012303229C
:1018F000802101900920C00600F066FE00200090C3
:1019000001230322402101900920C00600F05CFE63
:101910000020009001230322202101900920C0060D
:1019200000F052FE0020009003231A46012101908E
:101930000920C00600F048FE012000210B460322CA
:101940000091019004210920C00600F03DFE012015
:1019500000210B4603220091019008210920C006B6
:1019600000F032FE012000210B460322009101907D
:1019700010210920C00600F027FE012000210346A7
:1019800003220091019002210920C00600F01CFEF4
:101990001CBD00000004004870B505461C4800212D
:1019A0000160416081600A212846FEF7B5FC0646C9
:1019B0000A223146164800F0BDFD1548FEF716FC18
:1019C00004462E2012490855002D01DA694200E034
:1019D000294608460A21FEF79FFC0E460C490919C4
:1019E000481C0A22314600F0CAFD0948FEF7FEFBFA
:1019F000044620222046641C05490A5443222046FE
:101A0000641C0A542A222146641C0148425470BDB9
:101A10001402002010B58AB01F4909910024012149
:101A20000220FFF765FB102168460170002141701C
:101A300001218170FFF712FB184919480068FEF771
:101A400061FC401E84B2144807900021684601835F
:101A50000184418306A91348FFF730FC0122214687
:101A60001048FFF727FC01216846C180808C039055
:101A700001A90C48FFF7DAFB00210A48FFF70EFC2A
:101A8000012210210748FFF7C7FB01210548FFF796
:101A9000B5FB0AB010BD000070170000808D5B0020
:101AA0006801002000040040F8B5064634466D4841
:101AB0000078C007C00F00280AD16A4801F04AFE2A
:101AC000002805D0684801F0F5FE6648C046C046CB
:101AD00066A12046583001F0A9FF20467830042145
:101AE00041560B0001F028FE05042D9EB4A9BA0052
:101AF00020467830811D0D462A465FA16148FFF7D8
:101B00001BFD254678352846811D574A2046009101
:101B1000FFF712FC074606223946A81DFEF788FB90
:101B20000622394628461C30FEF782FB00BF554985
:101B30004D4801F0B1FE53492046683001F076FF70
:101B40008CE02046783000F053FF0746FFF724FF73
:101B5000054629462046683001F068FF5221606D35
:101B600001F0DCFE00281FD02046783000F040FF56
:101B70000090FFF7BBF8074643480168384601F07C
:101B800065FF054629462046783001F00CF83F48AD
:101B90000068401C3D4908603D493B48006801F031
:101BA00055FF394908602CE04321606D01F0B6FE15
:101BB00000281FD02046783000F01AFF0090FFF771
:101BC00095F8074630480168384602F033F8054674
:101BD00029462046783000F0E6FF2C480068401C7B
:101BE0002A4908602A492848006801F02FFF264941
:101BF000086006E00020254908607F20C0052249D2
:101C0000086022480068FFF771F807462149FEF78F
:101C100073FF05461C480168284601F017FF1A4962
:101C200008601BE02046783001F006F90546294699
:101C30002046683001F0FAFE10E02046783001F0CE
:101C400027F8054629462046683001F0EFFE05E0FA
:101C500011A12046683001F0E9FE00BF00BF00205E
:101C6000F8BD00002400002028000020546F7020E0
:101C70002F204F6E0000000068683A6D6D3A737354
:101C800000000000380200202C000020300000205E
:101C9000CDCCCC3D0000E0404D5554454400000003
:101CA00010B57D21C90014480068FEF72BFB0446DF
:101CB000601E1249884201D901200CE0601E1049C3
:101CC00048610321081F00F0A3FC00200C49886133
:101CD000072008610020002801D000BFFEE7012195
:101CE0004804FFF7F5F901218804FFF7F1F9012114
:101CF0004802FFF70DFA10BD68010020FFFFFF004A
:101D000000E000E0FEB504462546284601F0EAF86A
:101D100007463A4605A16846FFF70EFC06463146DF
:101D20002846583001F082FE0020FEBD68683A6DFA
:101D30006D3A73730000000070B505460E462C46E0
:101D40005221606D01F0EAFD002805D015480078A9
:101D5000012148401349087013A12046583001F072
:101D600065FE1048007800280DD011A1204668308B
:101D700001F05CFE4321606D01F0D0FD00280FD022
:101D8000A06CE0640CE00BA12046683001F04EFE30
:101D90004321606D01F0C2FD002801D0206DE06498
:101DA000002070BD3B00002053617665203F20007D
:101DB000596573004E6F0000F8B505462C466C4817
:101DC0000078C007C00F00280AD1694801F0C2FCA2
:101DD000002805D0674801F06DFD6548C046C04643
:101DE00065A12046583001F021FE204678300421BC
:101DF00041560B0001F0A0FC05042A9BB1A6B700D8
:101E00002046783001460C310E4632465DA16048CE
:101E1000FFF792FB26467836304601460C31554A8C
:101E200020460091FFF788FA0746062239463046D9
:101E30000C30FEF7FDF900BF55494E4801F02CFD6E
:101E400053492046683001F0F1FD8DE0204678309E
:101E500000F046FE0746FFF79FFD06463146204646
:101E6000683001F0E3FD5221606D01F057FD00285C
:101E70001FD02046783000F033FE0090FEF736FF8A
:101E8000074644480168384601F0E0FD0646314601
:101E90002046783000F0AAFE3F480068401C3E49CA
:101EA00008603E493B48006801F0D0FD39490860B0
:101EB0002CE04321606D01F031FD00281FD0204649
:101EC000783000F00DFE0090FEF710FF0746314815
:101ED0000168384601F0AEFE0646314620467830AD
:101EE00000F084FE2C480068401C2B4908602B49F8
:101EF0002848006801F0AAFD2649086006E0002095
:101F0000254908607F20C0052249086022480068F2
:101F1000FEF7ECFE07462249FEF7EEFD06461D4899
:101F20000168304601F092FD1A4908601CE0204625
:101F3000783000F081FF064631462046683001F0D7
:101F400075FD11E02046783000F092FE06463146DD
:101F50002046683001F06AFD06E012A12046683094
:101F600001F064FD00E000BF00BF0020F8BD0000EC
:101F70001400002020000020426F74742F4F66660A
:101F80000000000068683A6D6D3A7373000000004D
:101F90002C020020180000201C000020CDCCCC3DDD
:101FA0000000E0404D55544544000000FEB5054694
:101FB0002C4623A12046583001F038FD5221606D97
:101FC00001F0ACFC00280FD020467830C16A0F46E3
:101FD00001218907384601F039FD06463146204681
:101FE000783000F053FE14E04321606D01F096FC60
:101FF00000280ED020467830C16A0F46012189079B
:10200000384601F017FE064631462046783000F08B
:102010003DFE20467830C16A00910C49009801F0DD
:1020200085FD0190FEF718FE0746FFF70BFB0646FD
:1020300031462046683001F0F9FC0020FEBD00006A
:1020400041646A204F66663A0000000000007A444E
:10205000FEB504462546284600F044FF07463A46AA
:102060000AA16846FFF768FA064631462846583006
:1020700001F0DCFC2846783000F0F4FC06463146DE
:102080002846683001F0D2FC0020FEBD68683A6D39
:102090006D3A737300000000F8B505460E462C46F5
:1020A0005221606D01F03AFC00280DD020467830B6
:1020B0000179491C49B2017104214156032901DD0E
:1020C0000021017100BF00BF08A12046583001F077
:1020D000ADFC2046783000F0A5FE07463946204684
:1020E000683001F0A3FC0020F8BD00004D6F64656E
:1020F000203A2000F8B50446254628467830416B42
:1021000008460091FEF7A8FD0746FFF745FC064686
:1021100031462846583001F089FC2846783000F0D6
:102120008BFE064631462846683001F07FFC0020D1
:10213000F8BDF8B506460F4635464321686D01F0F7
:10214000EDFB002818D02C4678342079022811D1D4
:102150006079012801D0012000E0002060716079E1
:10216000002801D0012000E000200146206802681C
:102170002046904700BF00BF2846783000F052FE4E
:10218000044621462846583001F050FC2846783055
:1021900000F052FE044621462846683001F046FC15
:1021A0000020F8BD70B504460E46254605A1284618
:1021B000583001F03BFC05A12846683001F036FCA0
:1021C000002070BD4F7665726C6179005365747440
:1021D000696E67730000000010B5094800680028A8
:1021E00004D007480068401E05490860642104487F
:1021F0000068FEF787F8002900D100BF10BD00007D
:1022000010000020F8B505462C461D480078C00790
:10221000C00F00280AD11A4801F09CFA002805D006
:10222000184801F047FB1648C046C046204600F05B
:1022300059FE0746134A39462046FFF77DF8064601
:102240000622314620463E30FDF7F2FF00BF0EA1C8
:102250002046583001F0EAFB204600F043FE0646D7
:1022600032460BA10D48FFF767F90C49054801F00C
:1022700013FB0A492046683001F0D8FB0020F8BD66
:10228000340000203800002074696D65203A000099
:1022900068683A6D6D3A73730000000044020020D4
:1022A000F8B505460E462C4611A12046583001F0DF
:1022B000BDFB4321606D01F031FB00280CD02046AE
:1022C00078302221095C012901D0012200E000229E
:1022D00022210A5400BF00BF2046783000F0D8FC0D
:1022E000074639462046683001F0A0FB0020F8BDC3
:1022F0004F762E20546F703A00000000F8B5054666
:102300000E462C4611A12046583001F08FFB432188
:10231000606D01F003FB00280CD0204678302321AB
:10232000095C012901D0012200E0002223210A5486
:1023300000BF00BF2046783000F09AFC07463946BF
:102340002046683001F072FB0020F8BD4F762E2049
:10235000426F743A00000000F8B505460E462C4660
:1023600014A12046583001F061FB4321606D01F05B
:10237000D5FA00280ED0204678302521095C0029A6
:1023800003D1012225210A5402E0002225210A540A
:1023900000BF00BF204678302521095C002901D10B
:1023A000064900E006490F462046683001F03EFB32
:1023B0000020F8BD4F75747075743A005C3E0008DB
:1023C000633E0008F8B506460F4634464E4800788E
:1023D000C007C00F002810D14B4801F0BBF90028FE
:1023E0000BD04A4D00202863202230212846FDF7DB
:1023F00060FF00BF4448C046C04645A12046583053
:1024000001F014FB4321606D01F088FA00282AD006
:102410002046783000F0F6FB254678355920405D9F
:10242000401C41B2592041554157042901DD00218A
:102430004155592042575001374A811800222846F9
:1024400000F0DCFA00BF2046783000F083FB054640
:10245000002229462D4801F0CDF900BF00202B496C
:10246000086300BF19E05221606D01F057FA00289F
:1024700009D02046783000F019FC28A120466830A9
:1024800001F0D4FA09E02046783000F063FB0546FD
:10249000002229461D4801F0ADF9012221A11B4867
:1024A00001F098F92046783000F0BCFC0546022285
:1024B0002946164801F08EF92046783000F0D2FA0D
:1024C000054603222946114801F084F9042217A188
:1024D0000E4801F07FF900BF0C48006B401C0B490F
:1024E00008630846006B0830302801DB00200863D1
:1024F00000BF0648016B09180D462046683001F000
:1025000095FA0020F8BD00003C0000205002002099
:102510005072657365743A0084020020556E7374BE
:10252000617368004D6F6465203A20002A2A2A2AC8
:1025300000000000F8B504460D4617460095002D32
:1025400000DA6D42002600BF39462846FDF7E4FE5A
:1025500030313046761C215439462846FDF7DCFEE2
:10256000051EF1DC0098002803DA2D223046761C87
:1025700022540020A055204600F086F8F8BDF8B59A
:1025800004460D461646002700BF31462846FDF793
:10259000B9FE303138467F1C215431462846FDF7BC
:1025A000B1FE0500F1D1E055204600F06DF8F8BD10
:1025B00001B504490098086000BF0248006800287F
:1025C000FBD108BD10000020FFB583B00C461546B6
:1025D0001E460C9F019468460672877245726946D2
:1025E0000D98C87201A90398FEF7EDFC07B0F0BD85
:1025F00000218180817041700170704770B505467F
:102600000C462E682146304600F034F900BF70BDFC
:1026100010B5002819DA1A4A03071B0F083B9B085C
:102620009B00D2588307DC0EFF23A3409A438B07FD
:102630001B0E8407E40EA3401A43114B0407240F1A
:10264000083CA408A4001A5118E00E4A03231B02F8
:10265000D21883089B00D2588307DC0EFF23A340C7
:102660009A438B071B0E8407E40EA3401A43054BC5
:10267000032424021B198408A4001A5110BD000071
:102680001CED00E000E100E070B504462046FDF7D7
:10269000ADFD0019451E05E0267828782070641CE1
:1026A0002E706D1EAC42F7D3284670BD70B505463E
:1026B0000C46E207D20F02210E48FEF7DEFE022092
:1026C0002040420880210920C006FEF7D6FE0420E3
:1026D0002040820840210920C006FEF7CEFE0820D7
:1026E0002040C20820210920C006FEF7C6FE00BF18
:1026F00000BF70BD0004004870B504460D46206858
:102700000168204688472079042816D129112068BD
:102710008268204690472068C16820468847C821C3
:10272000204600F0A1F8206829468268204690479C
:102730002068C1682046884708E0206829468268EA
:10274000204690472068C16820468847C821204617
:1027500000F08AF870BD10B50446012189020920F5
:10276000C006FEF7AFFF00BF00BF10BD70B5044646
:102770000E4615462068962102692046904725712D
:10278000042D4AD12068016820468847206800212E
:102790008268204690472068C168204688472068A4
:1027A0000121026920469047206802218268204664
:1027B00090472068C1682046884720680121026947
:1027C000204690472C212046FFF796FF0421204603
:1027D000FFF792FF206801210269204690470221FD
:1027E0002046FFF789FF20680121026920469047B3
:1027F00001212046FFF780FF206802210269204660
:1028000090470F212046FFF777FF206801210269DA
:10281000204690470120607101E00020607170BD8A
:1028200010B5044600BF00BF012149020920C006BF
:10283000FEF748FF00BF00BF012251020920C00679
:10284000FEF71BFE00BF00BF012149020920C006A0
:10285000FEF738FF00BF00BF10BD10B504460A46A2
:102860001046FFF7A5FE10BD00BF0A46491E002A0C
:10287000FBD1704770B504460D462068416820467C
:1028800088472079042816D12911206882682046BB
:1028900090472068C16820468847C8212046FFF736
:1028A000E3FF206829468268204690472068C16877
:1028B0002046884708E020682946826820469047DD
:1028C0002068C16820468847C8212046FFF7CCFF12
:1028D00070BD10B50446012291020920C006FEF722
:1028E000CCFD00BF00BF10BD70B505460E461446B6
:1028F000002C01DD402000E000200446304680220C
:1029000010432043C1B22846FFF7F6FE2868012194
:1029100002692846904770BD0CB5002001900090D8
:10292000314800680121090408432F49086000BFAD
:102930002D48006801214904084000900198401C7E
:1029400001900098002804D10521090301988842CC
:10295000EED125480068012149040840002802D032
:102960000120009001E0002000900098012839D15A
:1029700011201E4908601C4840681B4948600846F1
:1029800040684860084640687F21C903884316496B
:1029900048600846406829210904084312494860F4
:1029A000084600680121090608430F49086000BF76
:1029B0000D4800680121490608400028F8D00A485F
:1029C0004068800880000849486008464068022145
:1029D00008430549486000BF034840680C2108408F
:1029E0000828F9D10CBD0000001002400020024070
:1029F00010B504466069FEF72FF910BD70B50446A6
:102A00000D461646286860616968A161062229465C
:102A10000831A01DFDF70CFC062229460E31204688
:102A20000C30FDF705FC012E07D1062229461A318C
:102A300020461C30FDF7FCFB03E020461C30FFF76E
:102A4000D7FDA97D22200155E97D23200155297E4E
:102A500026200155287D2071687D6071204600F098
:102A600083F870BD10B504462620005D022802D10F
:102A70001448006810BD2620005D012802D11148CD
:102A80004068F7E704202056002806D001280BD024
:102A900002280BD003280DD10AE022461C320A4935
:102AA0000A48FEF749FDE5E70948E3E70948E1E799
:102AB0000948DFE700BF0420205680000749085876
:102AC000D8E700005C0000203F3E000864030020BF
:102AD000483E00084F3E0008563E000840000020D7
:102AE00010B50446A069FEF7B7F810BD10B504464E
:102AF0002220005D01280FD16169606B01F06EF842
:102B000005D20121262001550020607108E0002136
:102B1000C9432620015503E00021C9432620015561
:102B20002320005D01280FD1A169606B00F0D4FF64
:102B300005D20221262001550120607108E0002104
:102B4000C9432620015503E00021C9432620015531
:102B500010BD00000146592042569000014A10580D
:102B6000704700004C01002010B50446207903286E
:102B700000D110BD2520005D002802D1052020567F
:102B800005E06079002801D1012000E00020002844
:102B900001D0012000E000200146206802682046A4
:102BA000904700BFE5E741617047816270470000D0
:102BB00070B5064600BF04210948FEF7C9F9002890
:102BC000F9D00748FEF7C0F90649484305460649CB
:102BD000FDF7A2FB04490C1A2046FEF787F870BDEA
:102BE00000240140E40C0000FF0F000081617047E9
:102BF00070B505460C46224602210920C006FEF7A4
:102C00003CFC70BD10B504465820005D012800D181
:102C100010BDA169E1636069A0630622A11D204681
:102C20004030FDF705FB062221460C312046463098
:102C3000FDF7FEFA062221461C3120465230FDF7F0
:102C4000F7FA21794C20015561794D200155222058
:102C5000015D4E2001552320015D4F2001552620A6
:102C6000015D5020015501215820015500BFCFE7DB
:102C700001462320405C012802D1034800687047C8
:102C800001484068FBE7000064000020C162704713
:102C900001462220405C012802D103484068704769
:102CA00001480068FBE700006400002010B50446FE
:102CB0005820005D002800D110BDA06B6061E16B61
:102CC000A161062221464031A01DFDF7B1FA06227E
:102CD0002146463120460C30FDF7AAFA062221464D
:102CE000523120461C30FDF7A3FA4C20005D2071C4
:102CF0004D20005D60714E20015D222001554F2066
:102D0000015D232001555020015D262001552046FC
:102D1000FFF72AFF00215820015500BFCCE7000033
:102D2000F0B58BB00446052020560A902068416813
:102D3000204688470190A16A00F0F8FE0746E16A44
:102D400000F084FE0290616B00F074FF0390FDF7C9
:102D5000A9FE0546314A324BFDF780FD07910690EA
:102D6000606BFDF79FFE05910490079B069AFDF7A7
:102D700045FD09910890FDF787FB6063042020560C
:102D8000002806D0012823D0022835D003283CD1C2
:102D900036E020461C30FEF73EFB002814D0607958
:102DA000002809D101206071062221460C312046FD
:102DB0001C30FDF73DFA07E0002060710622A11DDE
:102DC00020461C30FDF734FA2046FFF78FFE21E045
:102DD0000021C943262001556169606B00F0FEFEA9
:102DE00002D20020607106E0A169606B00F074FE01
:102DF00001D2012060710DE001212420015509E07C
:102E00000021C9432620015504E00021C9432620A2
:102E1000015500BF00BF0BB0F0BD0000B81E85EB30
:102E200051B89E3F0146042008568000014A1058C0
:102E3000704700004000002001462620405C022828
:102E400002D10848006870472620405C012802D162
:102E500004484068F7E7052008568000024A1058E9
:102E6000F1E700005C0000205400002010B504468B
:102E70001748206020461C30FFF7BAFBA01DFFF763
:102E8000B7FB20460C30FFF7B3FB0521217202216E
:102E9000A173104860611049A16100206071022097
:102EA00020710021222001550155242001550B4895
:102EB000A0620B48E06281172620015500212520E1
:102EC00001555820015559200155204610BD0000DC
:102ED000083E0008000016440000FA435C8F823F61
:102EE000000048C410B504460D480078C007C00F64
:102EF00000280DD10A4800F02DFC002808D0062239
:102F000021463E310748FDF793F90548C046C046C3
:102F1000062221463E310348FDF78AF9014810BDDB
:102F20007C0100208001002086B00446012005902D
:102F300000BF00BF2546083500231A4645492846EC
:102F400000F068FC012300224249284600F062FCA0
:102F500000BF00BF4C21606D00F0E0FC002805D0F0
:102F6000216DE06C00F0C0FBE0640AE04C21606D74
:102F700000F0D4FC002804D0216DE06C00F0B4FB1C
:102F8000E06401A8616D00F098FC02990198049139
:102F900003906846007C432805D04C2802D0522874
:102FA0001ED11AE01DE0E06C2065A16CE06C00BF52
:102FB0000269002A01D0002200E00122012A01D189
:102FC000024602E000BF426900BFE264E16C206D8E
:102FD000884201D1A06C206503E00320059000E049
:102FE00000BF00BF2646E56C059FE868002803D0B7
:102FF00039463046EA68904700BF2546783528793B
:10300000032800D117E02520405D002802D10520CB
:10301000285605E06879002801D1012000E0002051
:10302000002801D0012000E0002001462868026845
:103030002846904700BF21462046583000F089FCC2
:1030400021462046683000F084FCFF202D30FFF739
:10305000AFFA6EE72C3E000870B504462046FD49E5
:10306000216000BF04462046083000BF0446083CEB
:103070000020606500212046583000F0C7FC04465F
:10308000583C01212046683000F0C0FC0446683CF2
:1030900020467830FFF7EAFE0446783CFEF700FE53
:1030A000FEF704FCFEF72AFBFEF7B4FCFF202D30F0
:1030B000FFF77EFA25460426A5603246E6492846F3
:1030C000FFF754FBA56000BF20463E30FFF790FAA3
:1030D000E2480078C007C00F00280DD1DF4800F09B
:1030E00039FB002808D004220921C906DC4800F079
:1030F000D0FBDA48C046C046DA480078C007C00FA7
:1031000000280DD1D74800F025FB002808D0102258
:103110000921C906D44800F0BCFBD248C046C046CD
:10312000D2480078C007C00F00280DD1CF4800F06A
:1031300011FB002808D008220921C906CC4800F05C
:10314000A8FBCA48C046C046CA480078C007C00F9E
:1031500000280DD1C74800F0FDFA002808D002224F
:103160000921C906C44800F094FBC248C046C046C5
:10317000C1486064C1480078C007C00F002813D15F
:10318000BE4800F0E7FA00280ED0BD48BD49BE4A4F
:1031900003230025016042608360057300264673A7
:1031A00000BFB648C046C046B8480078C007C00F48
:1031B00000280BD1B54800F0CDFA002806D0B4495C
:1031C000B44800F09DFAB148C046C046B248007805
:1031D000C007C00F00280BD1AF4800F0BBFA002891
:1031E00006D0AE49AE4800F08BFAAB48C046C046A8
:1031F000AC480078C007C00F00280BD1A94800F0E8
:10320000A9FA002806D0A849A84800F079FAA548EC
:10321000C046C046A6480078C007C00F00280BD1A2
:10322000A34800F097FA002806D0A249A24800F06F
:1032300067FA9F48C046C046A0480078C007C00F44
:1032400000280BD19D4800F085FA002806D09C4943
:103250009C4800F055FA9948C046C0469A48007804
:10326000C007C00F00280BD1974800F073FA002860
:1032700006D09649964800F043FA9348C046C046A7
:1032800094480078C007C00F00280BD1914800F087
:1032900061FA002806D09049904800F031FA8D4834
:1032A000C046C0468E480078C007C00F00280BD12A
:1032B0008B4800F04FFA002806D08A498A4800F06F
:1032C0001FFA8748C046C04688480078C007C00F2C
:1032D00000280BD1854800F03DFA002806D084492B
:1032E000844800F00DFA8148C046C0468248007804
:1032F000C007C00F00280BD17F4800F02BFA002830
:1033000006D07E497E4800F0FBF97B48C046C046A7
:103310007C480078C007C00F00280BD1794800F026
:1033200019FA002806D07849784800F0E9F975487C
:10333000C046C04676480078C007C00F00280BD1B1
:10334000734800F007FA002806D07249724800F06E
:10335000D7F96F48C046C04670480078C007C00F14
:1033600000280BD16D4800F0F5F9002806D06C4913
:103370006C4800F0C5F96948C046C0466A48007804
:10338000C007C00F00280BD1674800F0E3F9002800
:1033900006D05D49654800F0B3F96348C046C046B1
:1033A00063480078C007C00F00280BD1604800F0C8
:1033B000D1F9002806D05F495F4800F0A1F95C48C8
:1033C000C046C0465D480078C007C00F00280BD13A
:1033D0005A4800F0BFF9002806D05949594800F072
:1033E0008FF95648C046C04657480078C007C00FFE
:1033F00000280BD1544800F0ADF9002806D05349FD
:10340000534800F07DF95048C046C0465148007806
:10341000C007C00F00280BD14E4800F09BF90028D0
:1034200006D04D494D4800F06BF94A48C046C046A9
:103430004B480078C007C00F00280AD1484800F068
:1034400089F9002805D04749474800F059F9444810
:103450008CE08DE0E83D00083E3E0008E0010020E1
:10346000E4010020EC010020F0010020D401002044
:10347000D8010020C8010020CC010020AC010020B0
:1034800094040020F80100206C3E0008B0010020E8
:10349000051D0008A4040020B401002051200008EC
:1034A000C4040020B801002099200008E404002092
:1034B000BC010020F520000804050020C001002008
:1034C0003321000824050020C4010020A5210008A4
:1034D00044050020A8010020C52300087404002032
:1034E000A4010020592300085404002008020020F1
:1034F000A91A00088405002010020020B91D000848
:10350000C4050020A0010020251800083404002074
:1035100098010020A1220008F4030020900100205F
:10352000FD220008B403002094010020D4030020F1
:103530008C010020052200089403002004020020D2
:10354000C9160008640500200C0200205D17000861
:10355000A40500209C010020AD1F000814040020D9
:1035600088010020391D000874030020C046C046B1
:103570003749384800F09AF83749364800F096F84D
:103580003649344800F092F83549324800F08EF858
:103590003449304800F08AF833492E4800F086F864
:1035A00032492C4800F082F831492A4800F07EF870
:1035B0003049284800F07AF82F49284800F076F87A
:1035C0002E49264800F072F82D49244800F06EF884
:1035D0002C49254800F06AF82B49234800F066F88A
:1035E0002A49214800F062F82949204800F05EF895
:1035F00028491E4800F05AF827491C4800F056F8A0
:103600001448A06400F06CF8E064A06C20652348C6
:10361000606500231A4622492046083000F0FAF877
:10362000012300221F492046083000F0F3F87D20D6
:10363000C000FEF7BDFF00231A461B492046083094
:1036400000F0E8F8FF20F530FEF7B2FF204670BD2D
:1036500054040020A4040020C4040020E40400203A
:1036600004050020240500204405002064050020F6
:1036700094030020740400203404002084050020FA
:10368000C4050020D4030020F4030020B40300206C
:1036900074030020A40500201404002094040020DA
:1036A000703E0008783E0008813E000830B50246B2
:1036B000002010770C46204615696D1C1561556970
:1036C000002D04D1506190618560456006E053692A
:1036D0008360002545605860506100BF00BF30BD69
:1036E000014600BF4869704770B504460D46A068A2
:1036F000002803D12846FFF7F3FF70BDA068FCE760
:103700000A4601460A4B036000234B608B6000BFF2
:10371000084608490160014610314B608B600B6020
:10372000103900BF0846C260591E0177704700007B
:10373000DC3D0008283E000830B47446641E25783D
:10374000641CAB4204D3635D5B00E31830BC1847D4
:103750001D46F8E70168002901D0002070470121CB
:10376000016008467047000010B520220B490C4844
:10377000FCF7E6FC20220B4909482030FCF7E0FC6E
:103780002022094906484030FCF7DAFC202207498C
:1037900003486030FCF7D4FC10BD00006C00002032
:1037A000840200208C000020AC000020CC0000200F
:1037B000B6B001A8FFF750FC01A805490860FF203A
:1037C000F530FEF7F5FE02E001A8FFF7ADFBFBE7E1
:1037D0000800002070B50346D400302C00DB70BD1B
:1037E000002003E00D5C06199D55401C0828F9DBFC
:1037F00000BFF4E770B50346D400302C00DB70BD89
:10380000002003E00D5C06199D55401C0828F9DBDB
:1038100000BFF4E7FFB583B005460E4600200290D6
:103820002C68059840B20190069847B2002F01DD40
:10383000402000E0002007468022019810433843D2
:10384000C1B22046FEF758FF2068012102692046D8
:10385000904700BF0BE00298411C0291345C2F6836
:1038600021463846FFF706F800BF00BF00BF0298A8
:10387000305C0028EFD107B0F0BD10B50446616898
:103880002068FDF700FE002801D0012010BD0020B7
:10389000FCE7016042607047024601201056012398
:1038A000584050705078002803D05F200023D35632
:1038B000C85470470021417070477CB506460C46DD
:1038C000002000900190607B012804D101990098AC
:1038D000716030607CBD002517E0AA00216888581F
:1038E000FFF7CBFF217B88420ED1A900206840580A
:1038F00000906068415D6846017101214171019944
:10390000009871603060E5E76D1CA068A842E4D8BB
:10391000019900987160306000BFDBE770B5044624
:103920000E46002510E06068405DB0420BD1AA0051
:1039300021688858FFF7A1FF217B884201D101202F
:1039400070BD0020FCE76D1CA068A842EBD80020E9
:10395000F6E770B504460D46206829460268204601
:1039600090470921601DFCF7C9FC70BDF3B587B015
:10397000044608980690069D08350495A77B059790
:10398000214E0020049D0390059F00BF02907AB253
:103990002868039949B2FEF7A7FF06E00298421C87
:1039A0000292315C2846FEF729FE0298305C00281E
:1039B000F4D100BF00BF0698651D0395029000205A
:1039C0000490A07B47B20597029806460836039DEF
:1039D00004980190059F00BF002000907AB23068E3
:1039E000019949B2FEF780FF06E00098421C009260
:1039F000295C3046FEF702FE0098285C0028F4D1CE
:103A000000BF00BF09B0F0BD353E000870B50446E8
:103A10000D4605482060012020710921601DFCF73A
:103A20006DFCA573204670BD1C3E000810B5024613
:103A300001201071002003E00C5C531D1C54401C3D
:103A4000092802DA0B5C002BF6D110BD70B50125F8
:103A50000400ED074C4020D4441A01D2001B091980
:103A6000C60D4B00F2B2FF2A29D01B0E2CD000024B
:103A70000C02D31A2C43DC402843051910D2280A23
:103A800002D3401C6D0611D0761EF6058019FF2A60
:103A900000DA70BDC00DC00570BD694000F0D0F8FF
:103AA00001200543C541521C761CE8E764089C4090
:103AB000C90161408900E7D10124A043E4E71B0E5E
:103AC000440200D0034870BD002AFCD1C00FC007DB
:103AD00070BD00BF0000C07F01230200DB050A4368
:103AE0000DD4DA4203D49A4207D488427047D842B0
:103AF00014D4D94212D48842704780427047DA42C7
:103B000003D59A42F9D5814270475B004200DA4200
:103B100004D24A00DA4201D28142704710B5024A0B
:103B2000FDF7F0F810BD00BF0900160470B54200A3
:103B300064414B005C41120E39D01B0E38D0FF2A75
:103B40003CD0FF2B3AD040024902400A490A060005
:103B500045184E43000A090AD2184843ED017F3A3E
:103B60000104731A4019190C4318990F04D001214C
:103B70005B0849075B1A521CD80904D3401CF503A3
:103B800001D19D0607D0FF2A08D2D50506D0E4074B
:103B90002043401970BD0125A843F4E7002A01DC49
:103BA000E00770BD2402FF202043C00570BD1B0E3E
:103BB000FF2A03D0FF2B01D0E00770BDFF26450090
:103BC0003606B54206D84D00B54203D8D218FF2AB2
:103BD00000D0E7E7004870BD0000C07F01230A0065
:103BE000DB0502430DD4DA4203D49A4207D4814262
:103BF0007047D94214D4D84212D4814270478942C6
:103C00007047DA4203D59A42F9D5884270475B0083
:103C10004A00DA4204D24200DA4201D288427047B6
:103C20004840414010B5024A4840FDF76BF810BDCE
:103C30000900160470B501250400ED074C4022D49C
:103C4000441A02D26C40001B0919C60D4B00F2B297
:103C5000FF2A4BD01B0E50D000020C02D31A2C436B
:103C6000DC40A843051B05D5AD0019D36D08761EB1
:103C7000521E37D0F605280A01D2801970BD704156
:103C80006D0603D070BD6940FFF7E6FE9C40090257
:103C90006140490001D0401E70BD0124A04370BDA9
:103CA0006D081DD001202B0C01D12D0410302B0EDE
:103CB00001D12D0208302B0F01D12D01001DAB0FBA
:103CC00001D1AD00801CEB0F01D16D00401C6D00D7
:103CD000361A121A680AF5054019012A02DB70BD6E
:103CE000002070BDC036300AC00770BD1B0E4402F4
:103CF00001D1FF2B00D1024870BD002AF0D070BD69
:103D00000000C07F3C54696D653E003C416E616CB3
:103D10006F673E003C4D616E75616C3E003C4D75B9
:103D20007465643E004F7665726C6179003C4F6E3D
:103D30003E003C4F66663E004F5652203A6F666624
:103D4000004F5652203A206F6E0044697361626CD6
:103D5000656400456E61626C656400505245534570
:103D6000543000505245534554310050524553454C
:103D70005432005052455345543300505245534538
:103D80005434005052455345543500505245534524
:103D90005436008182838485868788898B8C8D8EBA
:103DA0008F919293959697999A9C9D9FA0A2A3A577
:103DB000A7A8AAACAEB0B2B3B5B7B9BCBEC0C2C5B5
:103DC000C7C9CCCED1D4D7D9DCDFE2E6E9ECF0F339
:103DD000F7FAFE00000000000000000000000000F4
:103DE000000000000000000057270008D32800084A
:103DF000AD260008212800085B280008000000000C
:103E00000000000000000000F12B0008B12B0008AA
:103E10000000000000000000000000006D390008F4
:103E20000000000000000000000000002020202012
:103E3000202020200020202020202020200000689A
:103E4000683A6D6D3A737300416E616C6F67004D37
:103E5000616E75616C004D75746564004E6F726DB6
:103E6000616C00496E766572746564004C52430063
:103E70005F72656C61795F003C765F302E30353E55
:103E80000030392E30312E313600000048443036B3
:103E9000365F5F00B83E00080000002014020000FA
:103EA000660E0008583F000814020020D4090000E4
:103EB000F8000008B5F8FFFF138C3E8208A90C211A
:103EC0000312803F09101413043D1B080B041A143D
:103ED000041A1D041A25041A2D041A32041A38046F
:103EE0001A41041A4A041A53042123B442134842C3
:103EF000520A390632025AFF0C792011421E520131
:103F0000190609102052148A2820716920492F6946
:103F10004689204A8C20495A297B09144099A009D6
:103F200013800915201A5BE41A63041A6B041A73D0
:103F3000041A7B041A83042A8BFC4B6CDC70293333
:103F400000087C0203040607080913E4011B20F0A3
:083F5000041AD804011000005E
:04000005080000B53A
:00000001FF
